{
  "contractName": "JSONLD",
  "abi": [
    {
      "anonymous": false,
      "inputs": [
        {
          "indexed": false,
          "internalType": "address",
          "name": "sender",
          "type": "address"
        },
        {
          "indexed": false,
          "internalType": "uint256",
          "name": "amount",
          "type": "uint256"
        },
        {
          "indexed": false,
          "internalType": "string[]",
          "name": "playload",
          "type": "string[]"
        },
        {
          "indexed": false,
          "internalType": "string[]",
          "name": "lshCodes",
          "type": "string[]"
        }
      ],
      "name": "TransactionCreated",
      "type": "event"
    },
    {
      "inputs": [
        {
          "internalType": "uint256",
          "name": "",
          "type": "uint256"
        }
      ],
      "name": "transactions",
      "outputs": [
        {
          "internalType": "address",
          "name": "sender",
          "type": "address"
        },
        {
          "internalType": "uint256",
          "name": "amount",
          "type": "uint256"
        }
      ],
      "stateMutability": "view",
      "type": "function",
      "constant": true
    },
    {
      "stateMutability": "payable",
      "type": "receive",
      "payable": true
    },
    {
      "inputs": [
        {
          "internalType": "string[]",
          "name": "_playload",
          "type": "string[]"
        },
        {
          "internalType": "string[]",
          "name": "_lshCodes",
          "type": "string[]"
        }
      ],
      "name": "sendTransaction",
      "outputs": [],
      "stateMutability": "payable",
      "type": "function",
      "payable": true
    },
    {
      "inputs": [],
      "name": "getTotalTransactions",
      "outputs": [
        {
          "internalType": "uint256",
          "name": "",
          "type": "uint256"
        }
      ],
      "stateMutability": "view",
      "type": "function",
      "constant": true
    },
    {
      "inputs": [
        {
          "internalType": "string[]",
          "name": "path",
          "type": "string[]"
        }
      ],
      "name": "findTransactionsByPlayload",
      "outputs": [
        {
          "internalType": "uint256[]",
          "name": "",
          "type": "uint256[]"
        }
      ],
      "stateMutability": "view",
      "type": "function",
      "constant": true
    },
    {
      "inputs": [
        {
          "internalType": "string[]",
          "name": "_lshCodes",
          "type": "string[]"
        }
      ],
      "name": "findTransactionsByLSHCodes",
      "outputs": [
        {
          "internalType": "uint256[]",
          "name": "",
          "type": "uint256[]"
        }
      ],
      "stateMutability": "view",
      "type": "function",
      "constant": true
    },
    {
      "inputs": [
        {
          "internalType": "uint256",
          "name": "index",
          "type": "uint256"
        }
      ],
      "name": "findTransactionsByIndex",
      "outputs": [
        {
          "internalType": "string[]",
          "name": "",
          "type": "string[]"
        }
      ],
      "stateMutability": "view",
      "type": "function",
      "constant": true
    }
  ],
  "bytecode": "0x608060405234801561001057600080fd5b50611708806100206000396000f3fe6080604052600436106100595760003560e01c80632593b7401461006557806380e17f72146100a25780639ace38c2146100be578063b40b8fc8146100fc578063b5c604ff14610139578063bd6d45071461016457610060565b3661006057005b600080fd5b34801561007157600080fd5b5061008c60048036038101906100879190610c3a565b6101a1565b6040516100999190610db9565b60405180910390f35b6100bc60048036038101906100b79190610ff6565b6102e6565b005b3480156100ca57600080fd5b506100e560048036038101906100e09190610c3a565b610416565b6040516100f39291906110be565b60405180910390f35b34801561010857600080fd5b50610123600480360381019061011e91906110e7565b61046a565b60405161013091906111ee565b60405180910390f35b34801561014557600080fd5b5061014e610752565b60405161015b9190611210565b60405180910390f35b34801561017057600080fd5b5061018b600480360381019061018691906110e7565b61075e565b60405161019891906111ee565b60405180910390f35b606060008054905082106101ea576040517f08c379a00000000000000000000000000000000000000000000000000000000081526004016101e190611288565b60405180910390fd5b600082815481106101fe576101fd6112a8565b5b9060005260206000209060040201600201805480602002602001604051908101604052809291908181526020016000905b828210156102db57838290600052602060002001805461024e90611306565b80601f016020809104026020016040519081016040528092919081815260200182805461027a90611306565b80156102c75780601f1061029c576101008083540402835291602001916102c7565b820191906000526020600020905b8154815290600101906020018083116102aa57829003601f168201915b50505050508152602001906001019061022f565b505050509050919050565b600060405180608001604052803373ffffffffffffffffffffffffffffffffffffffff16815260200134815260200184815260200183815250908060018154018082558091505060019003906000526020600020906004020160009091909190915060008201518160000160006101000a81548173ffffffffffffffffffffffffffffffffffffffff021916908373ffffffffffffffffffffffffffffffffffffffff1602179055506020820151816001015560408201518160020190805190602001906103b5929190610b16565b5060608201518160030190805190602001906103d2929190610b16565b5050507f9322b02f168328ba93a6b0d86240f400a543a544d8f2661d36d4b985154965ff3334848460405161040a9493929190611337565b60405180910390a15050565b6000818154811061042657600080fd5b90600052602060002090600402016000915090508060000160009054906101000a900473ffffffffffffffffffffffffffffffffffffffff16908060010154905082565b60606000805b6000805490508110156105a25761057b60008281548110610494576104936112a8565b5b9060005260206000209060040201600201805480602002602001604051908101604052809291908181526020016000905b828210156105715783829060005260206000200180546104e490611306565b80601f016020809104026020016040519081016040528092919081815260200182805461051090611306565b801561055d5780601f106105325761010080835404028352916020019161055d565b820191906000526020600020905b81548152906001019060200180831161054057829003601f168201915b5050505050815260200190600101906104c5565b5050505085610a46565b1561058f57818061058b906113b9565b9250505b808061059a906113b9565b915050610470565b5060008167ffffffffffffffff8111156105bf576105be610de0565b5b6040519080825280602002602001820160405280156105ed5781602001602082028036833780820191505090505b5090506000805b600080549050811015610746576106ff60008281548110610618576106176112a8565b5b9060005260206000209060040201600201805480602002602001604051908101604052809291908181526020016000905b828210156106f557838290600052602060002001805461066890611306565b80601f016020809104026020016040519081016040528092919081815260200182805461069490611306565b80156106e15780601f106106b6576101008083540402835291602001916106e1565b820191906000526020600020905b8154815290600101906020018083116106c457829003601f168201915b505050505081526020019060010190610649565b5050505087610a46565b156107335780838381518110610718576107176112a8565b5b602002602001018181525050818061072f906113b9565b9250505b808061073e906113b9565b9150506105f4565b50819350505050919050565b60008080549050905090565b60606000805b6000805490508110156108965761086f60008281548110610788576107876112a8565b5b9060005260206000209060040201600301805480602002602001604051908101604052809291908181526020016000905b828210156108655783829060005260206000200180546107d890611306565b80601f016020809104026020016040519081016040528092919081815260200182805461080490611306565b80156108515780601f1061082657610100808354040283529160200191610851565b820191906000526020600020905b81548152906001019060200180831161083457829003601f168201915b5050505050815260200190600101906107b9565b5050505085610a46565b1561088357818061087f906113b9565b9250505b808061088e906113b9565b915050610764565b5060008167ffffffffffffffff8111156108b3576108b2610de0565b5b6040519080825280602002602001820160405280156108e15781602001602082028036833780820191505090505b5090506000805b600080549050811015610a3a576109f36000828154811061090c5761090b6112a8565b5b9060005260206000209060040201600301805480602002602001604051908101604052809291908181526020016000905b828210156109e957838290600052602060002001805461095c90611306565b80601f016020809104026020016040519081016040528092919081815260200182805461098890611306565b80156109d55780601f106109aa576101008083540402835291602001916109d5565b820191906000526020600020905b8154815290600101906020018083116109b857829003601f168201915b50505050508152602001906001019061093d565b5050505087610a46565b15610a275780838381518110610a0c57610a0b6112a8565b5b6020026020010181815250508180610a23906113b9565b9250505b8080610a32906113b9565b9150506108e8565b50819350505050919050565b60008151835114610a5a5760009050610b10565b60005b8351811015610b0a57828181518110610a7957610a786112a8565b5b6020026020010151604051602001610a91919061143d565b60405160208183030381529060405280519060200120848281518110610aba57610ab96112a8565b5b6020026020010151604051602001610ad2919061143d565b6040516020818303038152906040528051906020012014610af7576000915050610b10565b8080610b02906113b9565b915050610a5d565b50600190505b92915050565b828054828255906000526020600020908101928215610b5e579160200282015b82811115610b5d578251829081610b4d9190611600565b5091602001919060010190610b36565b5b509050610b6b9190610b6f565b5090565b5b80821115610b8f5760008181610b869190610b93565b50600101610b70565b5090565b508054610b9f90611306565b6000825580601f10610bb15750610bd0565b601f016020900490600052602060002090810190610bcf9190610bd3565b5b50565b5b80821115610bec576000816000905550600101610bd4565b5090565b6000604051905090565b600080fd5b600080fd5b6000819050919050565b610c1781610c04565b8114610c2257600080fd5b50565b600081359050610c3481610c0e565b92915050565b600060208284031215610c5057610c4f610bfa565b5b6000610c5e84828501610c25565b91505092915050565b600081519050919050565b600082825260208201905092915050565b6000819050602082019050919050565b600081519050919050565b600082825260208201905092915050565b60005b83811015610ccd578082015181840152602081019050610cb2565b60008484015250505050565b6000601f19601f8301169050919050565b6000610cf582610c93565b610cff8185610c9e565b9350610d0f818560208601610caf565b610d1881610cd9565b840191505092915050565b6000610d2f8383610cea565b905092915050565b6000602082019050919050565b6000610d4f82610c67565b610d598185610c72565b935083602082028501610d6b85610c83565b8060005b85811015610da75784840389528151610d888582610d23565b9450610d9383610d37565b925060208a01995050600181019050610d6f565b50829750879550505050505092915050565b60006020820190508181036000830152610dd38184610d44565b905092915050565b600080fd5b7f4e487b7100000000000000000000000000000000000000000000000000000000600052604160045260246000fd5b610e1882610cd9565b810181811067ffffffffffffffff82111715610e3757610e36610de0565b5b80604052505050565b6000610e4a610bf0565b9050610e568282610e0f565b919050565b600067ffffffffffffffff821115610e7657610e75610de0565b5b602082029050602081019050919050565b600080fd5b600080fd5b600067ffffffffffffffff821115610eac57610eab610de0565b5b610eb582610cd9565b9050602081019050919050565b82818337600083830152505050565b6000610ee4610edf84610e91565b610e40565b905082815260208101848484011115610f0057610eff610e8c565b5b610f0b848285610ec2565b509392505050565b600082601f830112610f2857610f27610ddb565b5b8135610f38848260208601610ed1565b91505092915050565b6000610f54610f4f84610e5b565b610e40565b90508083825260208201905060208402830185811115610f7757610f76610e87565b5b835b81811015610fbe57803567ffffffffffffffff811115610f9c57610f9b610ddb565b5b808601610fa98982610f13565b85526020850194505050602081019050610f79565b5050509392505050565b600082601f830112610fdd57610fdc610ddb565b5b8135610fed848260208601610f41565b91505092915050565b6000806040838503121561100d5761100c610bfa565b5b600083013567ffffffffffffffff81111561102b5761102a610bff565b5b61103785828601610fc8565b925050602083013567ffffffffffffffff81111561105857611057610bff565b5b61106485828601610fc8565b9150509250929050565b600073ffffffffffffffffffffffffffffffffffffffff82169050919050565b60006110998261106e565b9050919050565b6110a98161108e565b82525050565b6110b881610c04565b82525050565b60006040820190506110d360008301856110a0565b6110e060208301846110af565b9392505050565b6000602082840312156110fd576110fc610bfa565b5b600082013567ffffffffffffffff81111561111b5761111a610bff565b5b61112784828501610fc8565b91505092915050565b600081519050919050565b600082825260208201905092915050565b6000819050602082019050919050565b61116581610c04565b82525050565b6000611177838361115c565b60208301905092915050565b6000602082019050919050565b600061119b82611130565b6111a5818561113b565b93506111b08361114c565b8060005b838110156111e15781516111c8888261116b565b97506111d383611183565b9250506001810190506111b4565b5085935050505092915050565b600060208201905081810360008301526112088184611190565b905092915050565b600060208201905061122560008301846110af565b92915050565b600082825260208201905092915050565b7f5472616e73616374696f6e20646f6573206e6f74206578697374000000000000600082015250565b6000611272601a8361122b565b915061127d8261123c565b602082019050919050565b600060208201905081810360008301526112a181611265565b9050919050565b7f4e487b7100000000000000000000000000000000000000000000000000000000600052603260045260246000fd5b7f4e487b7100000000000000000000000000000000000000000000000000000000600052602260045260246000fd5b6000600282049050600182168061131e57607f821691505b602082108103611331576113306112d7565b5b50919050565b600060808201905061134c60008301876110a0565b61135960208301866110af565b818103604083015261136b8185610d44565b9050818103606083015261137f8184610d44565b905095945050505050565b7f4e487b7100000000000000000000000000000000000000000000000000000000600052601160045260246000fd5b60006113c482610c04565b91507fffffffffffffffffffffffffffffffffffffffffffffffffffffffffffffffff82036113f6576113f561138a565b5b600182019050919050565b600081905092915050565b600061141782610c93565b6114218185611401565b9350611431818560208601610caf565b80840191505092915050565b6000611449828461140c565b915081905092915050565b60008190508160005260206000209050919050565b60006020601f8301049050919050565b600082821b905092915050565b6000600883026114b67fffffffffffffffffffffffffffffffffffffffffffffffffffffffffffffffff82611479565b6114c08683611479565b95508019841693508086168417925050509392505050565b6000819050919050565b60006114fd6114f86114f384610c04565b6114d8565b610c04565b9050919050565b6000819050919050565b611517836114e2565b61152b61152382611504565b848454611486565b825550505050565b600090565b611540611533565b61154b81848461150e565b505050565b5b8181101561156f57611564600082611538565b600181019050611551565b5050565b601f8211156115b45761158581611454565b61158e84611469565b8101602085101561159d578190505b6115b16115a985611469565b830182611550565b50505b505050565b600082821c905092915050565b60006115d7600019846008026115b9565b1980831691505092915050565b60006115f083836115c6565b9150826002028217905092915050565b61160982610c93565b67ffffffffffffffff81111561162257611621610de0565b5b61162c8254611306565b611637828285611573565b600060209050601f83116001811461166a5760008415611658578287015190505b61166285826115e4565b8655506116ca565b601f19841661167886611454565b60005b828110156116a05784890151825560018201915060208501945060208101905061167b565b868310156116bd57848901516116b9601f8916826115c6565b8355505b6001600288020188555050505b50505050505056fea26469706673582212209ad2a70ebe21efe257e255f04974ee91ff97e50f60656b7ecfc0334eb6f608fc64736f6c63430008130033",
  "immutableReferences": {},
  "source": "// SPDX-License-Identifier: MIT\npragma solidity 0.8.19;\n\ncontract JSONLD {\n    // Transaction structure\n    struct Transaction {\n        address sender;\n        uint amount;\n        string[] playload;\n        string[] lshCodes;\n    }\n\n    // Array to store transactions\n    Transaction[] public transactions;\n\n    // Event to log transaction creation\n    event TransactionCreated(address sender, uint amount, string[] playload, string[] lshCodes);\n\n    // Function to initiate a transaction\n    function sendTransaction(string[] memory _playload, string[] memory _lshCodes) public payable {\n        // Create a new transaction and add it to the array\n        transactions.push(Transaction({\n            sender: msg.sender,\n            amount: msg.value,\n            playload: _playload,\n            lshCodes:_lshCodes\n        }));\n        // Emit an event for the new transaction\n        emit TransactionCreated(msg.sender, msg.value, _playload, _lshCodes);\n    }\n\n    // Function to get the total number of transactions\n    function getTotalTransactions() public view returns (uint) {\n        return transactions.length;\n    }\n    \n    // Helper function to compare two string arrays\n    function compareStrings(string[] memory a, string[] memory b) internal pure returns (bool) {\n        if (a.length != b.length) {\n            return false;\n        }\n        for (uint i = 0; i < a.length; i++) {\n            if (keccak256(abi.encodePacked(a[i])) != keccak256(abi.encodePacked(b[i]))) {\n                return false;\n            }\n        }\n        return true;\n    }\n\n    // Function to find transactions by playload\n    function findTransactionsByPlayload(string[] memory path) public view returns (uint[] memory) {\n        uint count = 0;\n        for (uint i = 0; i < transactions.length; i++) {\n            if (compareStrings(transactions[i].playload, path)) {\n                count++;\n            }\n        }\n\n        uint[] memory result = new uint[](count);\n        uint resultIndex = 0;\n        for (uint i = 0; i < transactions.length; i++) {\n            if (compareStrings(transactions[i].playload, path)) {\n                result[resultIndex] = i;\n                resultIndex++;\n            }\n        }\n        return result;\n    }\n    \n    // Function to find transactions by lshCodes\n    function findTransactionsByLSHCodes(string[] memory _lshCodes) public view returns (uint[] memory) {\n        uint count = 0;\n        for (uint i = 0; i < transactions.length; i++) {\n            if (compareStrings(transactions[i].lshCodes, _lshCodes)) {\n                count++;\n            }\n        }\n\n        uint[] memory result = new uint[](count);\n        uint resultIndex = 0;\n        for (uint i = 0; i < transactions.length; i++) {\n            if (compareStrings(transactions[i].lshCodes, _lshCodes)) {\n                result[resultIndex] = i;\n                resultIndex++;\n            }\n        }\n        return result;\n    }\n    \n    // Function to get the playload of a specific transaction\n    function findTransactionsByIndex(uint index) public view returns (string[] memory) {\n        require(index < transactions.length, \"Transaction does not exist\");\n        return transactions[index].playload;\n    }\n\n    // Fallback function to receive Ether\n    receive() external payable {}\n}\n",
  "sourcePath": "/Users/sophy/Documents//privateChain/LSHChain/contracts/GraphChain.sol",
  "compiler": {
    "name": "solc",
    "version": "0.8.19+commit.7dd6d404.Emscripten.clang"
  },
  "schemaVersion": "3.4.16",
  "updatedAt": "2024-10-10T02:11:58.765Z",
  "networkType": "ethereum",
  "devdoc": {
    "kind": "dev",
    "methods": {},
    "version": 1
  },
  "userdoc": {
    "kind": "user",
    "methods": {},
    "version": 1
  }
}