{
  "contractName": "JSONLD",
  "abi": [
    {
      "anonymous": false,
      "inputs": [
        {
          "indexed": false,
          "internalType": "address",
          "name": "sender",
          "type": "address"
        },
        {
          "indexed": false,
          "internalType": "uint256",
          "name": "amount",
          "type": "uint256"
        },
        {
          "indexed": false,
          "internalType": "bytes",
          "name": "payload",
          "type": "bytes"
        },
        {
          "indexed": false,
          "internalType": "int256",
          "name": "lshCodes",
          "type": "int256"
        },
        {
          "indexed": false,
          "internalType": "bytes",
          "name": "TxHash",
          "type": "bytes"
        }
      ],
      "name": "TransactionCreated",
      "type": "event"
    },
    {
      "inputs": [
        {
          "internalType": "uint256",
          "name": "",
          "type": "uint256"
        }
      ],
      "name": "transactions",
      "outputs": [
        {
          "internalType": "address",
          "name": "sender",
          "type": "address"
        },
        {
          "internalType": "uint256",
          "name": "amount",
          "type": "uint256"
        },
        {
          "internalType": "bytes",
          "name": "payload",
          "type": "bytes"
        },
        {
          "internalType": "int256",
          "name": "lshCodes",
          "type": "int256"
        },
        {
          "internalType": "bytes",
          "name": "TxHash",
          "type": "bytes"
        }
      ],
      "stateMutability": "view",
      "type": "function",
      "constant": true
    },
    {
      "stateMutability": "payable",
      "type": "receive",
      "payable": true
    },
    {
      "inputs": [
        {
          "internalType": "bytes",
          "name": "_payload",
          "type": "bytes"
        },
        {
          "internalType": "int256",
          "name": "_lshCodes",
          "type": "int256"
        }
      ],
      "name": "sendTransaction",
      "outputs": [],
      "stateMutability": "payable",
      "type": "function",
      "payable": true
    },
    {
      "inputs": [],
      "name": "getTotalTransactions",
      "outputs": [
        {
          "internalType": "uint256",
          "name": "",
          "type": "uint256"
        }
      ],
      "stateMutability": "view",
      "type": "function",
      "constant": true
    },
    {
      "inputs": [
        {
          "internalType": "bytes",
          "name": "_txhash",
          "type": "bytes"
        }
      ],
      "name": "findTransactionsByTxHash",
      "outputs": [
        {
          "internalType": "uint256[]",
          "name": "",
          "type": "uint256[]"
        }
      ],
      "stateMutability": "view",
      "type": "function",
      "constant": true
    },
    {
      "inputs": [
        {
          "internalType": "uint256",
          "name": "index",
          "type": "uint256"
        }
      ],
      "name": "findTransactionsByIndex",
      "outputs": [
        {
          "internalType": "bytes",
          "name": "",
          "type": "bytes"
        }
      ],
      "stateMutability": "view",
      "type": "function",
      "constant": true
    },
    {
      "inputs": [
        {
          "internalType": "bytes",
          "name": "path",
          "type": "bytes"
        }
      ],
      "name": "findTransactionsBypayload",
      "outputs": [
        {
          "internalType": "uint256[]",
          "name": "",
          "type": "uint256[]"
        }
      ],
      "stateMutability": "view",
      "type": "function",
      "constant": true
    },
    {
      "inputs": [
        {
          "internalType": "int256",
          "name": "_lshCodes",
          "type": "int256"
        }
      ],
      "name": "findTransactionsByLSHCodes",
      "outputs": [
        {
          "internalType": "uint256[]",
          "name": "",
          "type": "uint256[]"
        }
      ],
      "stateMutability": "view",
      "type": "function",
      "constant": true
    }
  ],
  "bytecode": "0x608060405234801561001057600080fd5b50611785806100206000396000f3fe6080604052600436106100745760003560e01c80638f3770701161004e5780638f377070146101165780639ace38c214610153578063a992ef9814610194578063b5c604ff146101d15761007b565b80632593b740146100805780637cbaf673146100bd5780638dab7dd8146100fa5761007b565b3661007b57005b600080fd5b34801561008c57600080fd5b506100a760048036038101906100a29190610d10565b6101fc565b6040516100b49190610dcd565b60405180910390f35b3480156100c957600080fd5b506100e460048036038101906100df9190610e25565b6102fa565b6040516100f19190610f10565b60405180910390f35b610114600480360381019061010f9190611067565b610434565b005b34801561012257600080fd5b5061013d600480360381019061013891906110c3565b6105c1565b60405161014a9190610f10565b60405180910390f35b34801561015f57600080fd5b5061017a60048036038101906101759190610d10565b61081b565b60405161018b95949392919061116b565b60405180910390f35b3480156101a057600080fd5b506101bb60048036038101906101b691906110c3565b610991565b6040516101c89190610f10565b60405180910390f35b3480156101dd57600080fd5b506101e6610beb565b6040516101f391906111cc565b60405180910390f35b60606001805490508210610245576040517f08c379a000000000000000000000000000000000000000000000000000000000815260040161023c90611244565b60405180910390fd5b6001828154811061025957610258611264565b5b90600052602060002090600502016004018054610275906112c2565b80601f01602080910402602001604051908101604052809291908181526020018280546102a1906112c2565b80156102ee5780601f106102c3576101008083540402835291602001916102ee565b820191906000526020600020905b8154815290600101906020018083116102d157829003601f168201915b50505050509050919050565b60606000805b60018054905081101561035b57836001828154811061032257610321611264565b5b9060005260206000209060050201600301540361034857818061034490611322565b9250505b808061035390611322565b915050610300565b5060008167ffffffffffffffff81111561037857610377610f3c565b5b6040519080825280602002602001820160405280156103a65781602001602082028036833780820191505090505b5090506000805b6001805490508110156104285785600182815481106103cf576103ce611264565b5b9060005260206000209060050201600301540361041557808383815181106103fa576103f9611264565b5b602002602001018181525050818061041190611322565b9250505b808061042090611322565b9150506103ad565b50819350505050919050565b6000333484844260405160200161044f959493929190611430565b60405160208183030381529060405280519060200120905060008160405160200161047a91906114b6565b604051602081830303815290604052905060016040518060a001604052803373ffffffffffffffffffffffffffffffffffffffff16815260200134815260200186815260200185815260200183815250908060018154018082558091505060019003906000526020600020906005020160009091909190915060008201518160000160006101000a81548173ffffffffffffffffffffffffffffffffffffffff021916908373ffffffffffffffffffffffffffffffffffffffff160217905550602082015181600101556040820151816002019081610559919061167d565b50606082015181600301556080820151816004019081610579919061167d565b5050507f93f7391fa5fb27f63d103a4c067866cc9d08c7cd17e691d052d9d47199be631a33348686856040516105b395949392919061116b565b60405180910390a150505050565b60606000805b6001805490508110156106b25761068b600182815481106105eb576105ea611264565b5b90600052602060002090600502016004018054610607906112c2565b80601f0160208091040260200160405190810160405280929190818152602001828054610633906112c2565b80156106805780601f1061065557610100808354040283529160200191610680565b820191906000526020600020905b81548152906001019060200180831161066357829003601f168201915b505050505085610bf8565b1561069f57818061069b90611322565b9250505b80806106aa90611322565b9150506105c7565b5060008167ffffffffffffffff8111156106cf576106ce610f3c565b5b6040519080825280602002602001820160405280156106fd5781602001602082028036833780820191505090505b5090506000805b60018054905081101561080f576107c86001828154811061072857610727611264565b5b90600052602060002090600502016004018054610744906112c2565b80601f0160208091040260200160405190810160405280929190818152602001828054610770906112c2565b80156107bd5780601f10610792576101008083540402835291602001916107bd565b820191906000526020600020905b8154815290600101906020018083116107a057829003601f168201915b505050505087610bf8565b156107fc57808383815181106107e1576107e0611264565b5b60200260200101818152505081806107f890611322565b9250505b808061080790611322565b915050610704565b50819350505050919050565b6001818154811061082b57600080fd5b90600052602060002090600502016000915090508060000160009054906101000a900473ffffffffffffffffffffffffffffffffffffffff169080600101549080600201805461087a906112c2565b80601f01602080910402602001604051908101604052809291908181526020018280546108a6906112c2565b80156108f35780601f106108c8576101008083540402835291602001916108f3565b820191906000526020600020905b8154815290600101906020018083116108d657829003601f168201915b50505050509080600301549080600401805461090e906112c2565b80601f016020809104026020016040519081016040528092919081815260200182805461093a906112c2565b80156109875780601f1061095c57610100808354040283529160200191610987565b820191906000526020600020905b81548152906001019060200180831161096a57829003601f168201915b5050505050905085565b60606000805b600180549050811015610a8257610a5b600182815481106109bb576109ba611264565b5b906000526020600020906005020160020180546109d7906112c2565b80601f0160208091040260200160405190810160405280929190818152602001828054610a03906112c2565b8015610a505780601f10610a2557610100808354040283529160200191610a50565b820191906000526020600020905b815481529060010190602001808311610a3357829003601f168201915b505050505085610bf8565b15610a6f578180610a6b90611322565b9250505b8080610a7a90611322565b915050610997565b5060008167ffffffffffffffff811115610a9f57610a9e610f3c565b5b604051908082528060200260200182016040528015610acd5781602001602082028036833780820191505090505b5090506000805b600180549050811015610bdf57610b9860018281548110610af857610af7611264565b5b90600052602060002090600502016002018054610b14906112c2565b80601f0160208091040260200160405190810160405280929190818152602001828054610b40906112c2565b8015610b8d5780601f10610b6257610100808354040283529160200191610b8d565b820191906000526020600020905b815481529060010190602001808311610b7057829003601f168201915b505050505087610bf8565b15610bcc5780838381518110610bb157610bb0611264565b5b6020026020010181815250508180610bc890611322565b9250505b8080610bd790611322565b915050610ad4565b50819350505050919050565b6000600180549050905090565b60008151835114610c0c5760009050610cc0565b60005b8351811015610cba57828181518110610c2b57610c2a611264565b5b602001015160f81c60f81b7effffffffffffffffffffffffffffffffffffffffffffffffffffffffffffff1916848281518110610c6b57610c6a611264565b5b602001015160f81c60f81b7effffffffffffffffffffffffffffffffffffffffffffffffffffffffffffff191614610ca7576000915050610cc0565b8080610cb290611322565b915050610c0f565b50600190505b92915050565b6000604051905090565b600080fd5b600080fd5b6000819050919050565b610ced81610cda565b8114610cf857600080fd5b50565b600081359050610d0a81610ce4565b92915050565b600060208284031215610d2657610d25610cd0565b5b6000610d3484828501610cfb565b91505092915050565b600081519050919050565b600082825260208201905092915050565b60005b83811015610d77578082015181840152602081019050610d5c565b60008484015250505050565b6000601f19601f8301169050919050565b6000610d9f82610d3d565b610da98185610d48565b9350610db9818560208601610d59565b610dc281610d83565b840191505092915050565b60006020820190508181036000830152610de78184610d94565b905092915050565b6000819050919050565b610e0281610def565b8114610e0d57600080fd5b50565b600081359050610e1f81610df9565b92915050565b600060208284031215610e3b57610e3a610cd0565b5b6000610e4984828501610e10565b91505092915050565b600081519050919050565b600082825260208201905092915050565b6000819050602082019050919050565b610e8781610cda565b82525050565b6000610e998383610e7e565b60208301905092915050565b6000602082019050919050565b6000610ebd82610e52565b610ec78185610e5d565b9350610ed283610e6e565b8060005b83811015610f03578151610eea8882610e8d565b9750610ef583610ea5565b925050600181019050610ed6565b5085935050505092915050565b60006020820190508181036000830152610f2a8184610eb2565b905092915050565b600080fd5b600080fd5b7f4e487b7100000000000000000000000000000000000000000000000000000000600052604160045260246000fd5b610f7482610d83565b810181811067ffffffffffffffff82111715610f9357610f92610f3c565b5b80604052505050565b6000610fa6610cc6565b9050610fb28282610f6b565b919050565b600067ffffffffffffffff821115610fd257610fd1610f3c565b5b610fdb82610d83565b9050602081019050919050565b82818337600083830152505050565b600061100a61100584610fb7565b610f9c565b90508281526020810184848401111561102657611025610f37565b5b611031848285610fe8565b509392505050565b600082601f83011261104e5761104d610f32565b5b813561105e848260208601610ff7565b91505092915050565b6000806040838503121561107e5761107d610cd0565b5b600083013567ffffffffffffffff81111561109c5761109b610cd5565b5b6110a885828601611039565b92505060206110b985828601610e10565b9150509250929050565b6000602082840312156110d9576110d8610cd0565b5b600082013567ffffffffffffffff8111156110f7576110f6610cd5565b5b61110384828501611039565b91505092915050565b600073ffffffffffffffffffffffffffffffffffffffff82169050919050565b60006111378261110c565b9050919050565b6111478161112c565b82525050565b61115681610cda565b82525050565b61116581610def565b82525050565b600060a082019050611180600083018861113e565b61118d602083018761114d565b818103604083015261119f8186610d94565b90506111ae606083018561115c565b81810360808301526111c08184610d94565b90509695505050505050565b60006020820190506111e1600083018461114d565b92915050565b600082825260208201905092915050565b7f5472616e73616374696f6e20646f6573206e6f74206578697374000000000000600082015250565b600061122e601a836111e7565b9150611239826111f8565b602082019050919050565b6000602082019050818103600083015261125d81611221565b9050919050565b7f4e487b7100000000000000000000000000000000000000000000000000000000600052603260045260246000fd5b7f4e487b7100000000000000000000000000000000000000000000000000000000600052602260045260246000fd5b600060028204905060018216806112da57607f821691505b6020821081036112ed576112ec611293565b5b50919050565b7f4e487b7100000000000000000000000000000000000000000000000000000000600052601160045260246000fd5b600061132d82610cda565b91507fffffffffffffffffffffffffffffffffffffffffffffffffffffffffffffffff820361135f5761135e6112f3565b5b600182019050919050565b60008160601b9050919050565b60006113828261136a565b9050919050565b600061139482611377565b9050919050565b6113ac6113a78261112c565b611389565b82525050565b6000819050919050565b6113cd6113c882610cda565b6113b2565b82525050565b600081905092915050565b60006113e982610d3d565b6113f381856113d3565b9350611403818560208601610d59565b80840191505092915050565b6000819050919050565b61142a61142582610def565b61140f565b82525050565b600061143c828861139b565b60148201915061144c82876113bc565b60208201915061145c82866113de565b91506114688285611419565b60208201915061147882846113bc565b6020820191508190509695505050505050565b6000819050919050565b6000819050919050565b6114b06114ab8261148b565b611495565b82525050565b60006114c2828461149f565b60208201915081905092915050565b60008190508160005260206000209050919050565b60006020601f8301049050919050565b600082821b905092915050565b6000600883026115337fffffffffffffffffffffffffffffffffffffffffffffffffffffffffffffffff826114f6565b61153d86836114f6565b95508019841693508086168417925050509392505050565b6000819050919050565b600061157a61157561157084610cda565b611555565b610cda565b9050919050565b6000819050919050565b6115948361155f565b6115a86115a082611581565b848454611503565b825550505050565b600090565b6115bd6115b0565b6115c881848461158b565b505050565b5b818110156115ec576115e16000826115b5565b6001810190506115ce565b5050565b601f82111561163157611602816114d1565b61160b846114e6565b8101602085101561161a578190505b61162e611626856114e6565b8301826115cd565b50505b505050565b600082821c905092915050565b600061165460001984600802611636565b1980831691505092915050565b600061166d8383611643565b9150826002028217905092915050565b61168682610d3d565b67ffffffffffffffff81111561169f5761169e610f3c565b5b6116a982546112c2565b6116b48282856115f0565b600060209050601f8311600181146116e757600084156116d5578287015190505b6116df8582611661565b865550611747565b601f1984166116f5866114d1565b60005b8281101561171d578489015182556001820191506020850194506020810190506116f8565b8683101561173a5784890151611736601f891682611643565b8355505b6001600288020188555050505b50505050505056fea2646970667358221220f14682eaa358b906e84f0bf1c8c78140026a2e18dec5e723bba0d8f47da0bda264736f6c63430008130033",
  "immutableReferences": {},
  "source": "// SPDX-License-Identifier: MIT\npragma solidity 0.8.19;\n\ncontract JSONLD {\n    // Transaction structure\n    struct Transaction {\n        address sender;\n        uint amount;\n        bytes payload;\n        int lshCodes;\n        bytes TxHash; //  TxHash \n    }\n\n    // B+ Tree structure\n    struct BPlusTree {\n        bytes32 rootHash;\n    }\n    // B+ Tree instance\n    BPlusTree private bPlusTree;\n    \n    // Array to store transactions\n    Transaction[] public transactions;\n\n    // Event to log transaction creation\n    event TransactionCreated(address sender, uint amount, bytes payload, int lshCodes, bytes TxHash);\n    // Function to initiate a transaction\n    function sendTransaction(bytes memory _payload, int _lshCodes) public payable {\n        // \n        bytes32 txHash = keccak256(abi.encodePacked(msg.sender, msg.value, _payload, _lshCodes, block.timestamp));\n        bytes memory txhash = abi.encodePacked(txHash); //  bytes\n        // Create a new transaction and add it to the array\n        transactions.push(Transaction({\n            sender: msg.sender,\n            amount: msg.value,\n            payload: _payload,\n            lshCodes: _lshCodes,\n            TxHash: txhash // \n        }));\n        \n        // Emit an event for the new transaction\n        emit TransactionCreated(msg.sender, msg.value, _payload, _lshCodes, txhash);\n    }\n\n    // Function to get the total number of transactions\n    function getTotalTransactions() public view returns (uint) {\n        return transactions.length;\n    }\n\n    // Helper function to compare two bytes arrays\n    function compareBytes(bytes memory a, bytes memory b) internal pure returns (bool) {\n        if (a.length != b.length) {\n            return false;\n        }\n        for (uint i = 0; i < a.length; i++) {\n            if (a[i] != b[i]) {\n                return false;\n            }\n        }\n        return true;\n    }\n\n    // Function to find transactions by transaction hash\n    function findTransactionsByTxHash(bytes memory _txhash) public view returns (uint[] memory) {\n        uint count = 0;\n        for (uint i = 0; i < transactions.length; i++) {\n            // Compare TxHash with the provided hashes\n            if (compareBytes(transactions[i].TxHash, _txhash)) {\n                count++;\n            }\n        }\n\n        uint[] memory result = new uint[](count);\n        uint resultIndex = 0;\n        for (uint i = 0; i < transactions.length; i++) {\n            if (compareBytes(transactions[i].TxHash, _txhash)) {\n                result[resultIndex] = i;\n                resultIndex++;\n            }\n        }\n        return result;\n    }\n    \n    // Function to get the payload of a specific transaction\n    function findTransactionsByIndex(uint index) public view returns (bytes memory) {\n        require(index < transactions.length, \"Transaction does not exist\");\n        return transactions[index].TxHash;\n    }\n    \n    // Function to find transactions by payload\n    function findTransactionsBypayload(bytes memory path) public view returns (uint[] memory) {\n        uint count = 0;\n        for (uint i = 0; i < transactions.length; i++) {\n            if (compareBytes(transactions[i].payload, path)) {\n                count++;\n            }\n        }\n\n        uint[] memory result = new uint[](count);\n        uint resultIndex = 0;\n        for (uint i = 0; i < transactions.length; i++) {\n            if (compareBytes(transactions[i].payload, path)) {\n                result[resultIndex] = i;\n                resultIndex++;\n            }\n        }\n        return result;\n    }\n    \n    // Function to find transactions by lshCodes\n    function findTransactionsByLSHCodes(int _lshCodes) public view returns (uint[] memory) {\n        uint count = 0;\n        for (uint i = 0; i < transactions.length; i++) {\n            if (transactions[i].lshCodes == _lshCodes) {\n                count++;\n            }\n        }\n\n        uint[] memory result = new uint[](count);\n        uint resultIndex = 0;\n        for (uint i = 0; i < transactions.length; i++) {\n            if (transactions[i].lshCodes == _lshCodes) {\n                result[resultIndex] = i;\n                resultIndex++;\n            }\n        }\n        return result;\n    }\n    \n    // Fallback function to receive Ether\n    receive() external payable {}\n}\n",
  "sourcePath": "/Users/sophy/Documents//privateChain/LSHChain/contracts/JSONLD.sol",
  "compiler": {
    "name": "solc",
    "version": "0.8.19+commit.7dd6d404.Emscripten.clang"
  },
  "schemaVersion": "3.4.16",
  "updatedAt": "2024-10-17T03:50:08.715Z",
  "networkType": "ethereum",
  "devdoc": {
    "kind": "dev",
    "methods": {},
    "version": 1
  },
  "userdoc": {
    "kind": "user",
    "methods": {},
    "version": 1
  }
}