{
  "contractName": "RDF",
  "abi": [
    {
      "anonymous": false,
      "inputs": [
        {
          "indexed": false,
          "internalType": "address",
          "name": "sender",
          "type": "address"
        },
        {
          "indexed": false,
          "internalType": "uint256",
          "name": "amount",
          "type": "uint256"
        },
        {
          "indexed": false,
          "internalType": "bytes",
          "name": "payload",
          "type": "bytes"
        },
        {
          "indexed": false,
          "internalType": "int256",
          "name": "lshCodes",
          "type": "int256"
        },
        {
          "indexed": false,
          "internalType": "bytes",
          "name": "TxHash",
          "type": "bytes"
        }
      ],
      "name": "TransactionCreated",
      "type": "event"
    },
    {
      "inputs": [
        {
          "internalType": "uint256",
          "name": "",
          "type": "uint256"
        }
      ],
      "name": "transactions",
      "outputs": [
        {
          "internalType": "address",
          "name": "sender",
          "type": "address"
        },
        {
          "internalType": "uint256",
          "name": "amount",
          "type": "uint256"
        },
        {
          "internalType": "bytes",
          "name": "payload",
          "type": "bytes"
        },
        {
          "internalType": "int256",
          "name": "lshCodes",
          "type": "int256"
        },
        {
          "internalType": "bytes",
          "name": "TxHash",
          "type": "bytes"
        }
      ],
      "stateMutability": "view",
      "type": "function",
      "constant": true
    },
    {
      "stateMutability": "payable",
      "type": "receive",
      "payable": true
    },
    {
      "inputs": [
        {
          "internalType": "bytes",
          "name": "_payload",
          "type": "bytes"
        },
        {
          "internalType": "int256",
          "name": "_lshCodes",
          "type": "int256"
        }
      ],
      "name": "sendTransaction",
      "outputs": [],
      "stateMutability": "payable",
      "type": "function",
      "payable": true
    },
    {
      "inputs": [],
      "name": "getTotalTransactions",
      "outputs": [
        {
          "internalType": "uint256",
          "name": "",
          "type": "uint256"
        }
      ],
      "stateMutability": "view",
      "type": "function",
      "constant": true
    },
    {
      "inputs": [
        {
          "internalType": "bytes",
          "name": "_txhash",
          "type": "bytes"
        }
      ],
      "name": "findTransactionsByTxHash",
      "outputs": [
        {
          "internalType": "uint256[]",
          "name": "",
          "type": "uint256[]"
        }
      ],
      "stateMutability": "view",
      "type": "function",
      "constant": true
    },
    {
      "inputs": [
        {
          "internalType": "uint256",
          "name": "index",
          "type": "uint256"
        }
      ],
      "name": "findTransactionsByIndex",
      "outputs": [
        {
          "internalType": "bytes",
          "name": "",
          "type": "bytes"
        }
      ],
      "stateMutability": "view",
      "type": "function",
      "constant": true
    },
    {
      "inputs": [
        {
          "internalType": "bytes",
          "name": "path",
          "type": "bytes"
        }
      ],
      "name": "findTransactionsBypayload",
      "outputs": [
        {
          "internalType": "uint256[]",
          "name": "",
          "type": "uint256[]"
        }
      ],
      "stateMutability": "view",
      "type": "function",
      "constant": true
    }
  ],
  "bytecode": "0x608060405234801561001057600080fd5b506115c6806100206000396000f3fe6080604052600436106100595760003560e01c80632593b740146100655780638dab7dd8146100a25780638f377070146100be5780639ace38c2146100fb578063a992ef981461013c578063b5c604ff1461017957610060565b3661006057005b600080fd5b34801561007157600080fd5b5061008c60048036038101906100879190610b7e565b6101a4565b6040516100999190610c3b565b60405180910390f35b6100bc60048036038101906100b79190610dc8565b6102a2565b005b3480156100ca57600080fd5b506100e560048036038101906100e09190610e24565b61042f565b6040516100f29190610f2b565b60405180910390f35b34801561010757600080fd5b50610122600480360381019061011d9190610b7e565b610689565b604051610133959493929190610fac565b60405180910390f35b34801561014857600080fd5b50610163600480360381019061015e9190610e24565b6107ff565b6040516101709190610f2b565b60405180910390f35b34801561018557600080fd5b5061018e610a59565b60405161019b919061100d565b60405180910390f35b606060018054905082106101ed576040517f08c379a00000000000000000000000000000000000000000000000000000000081526004016101e490611085565b60405180910390fd5b60018281548110610201576102006110a5565b5b9060005260206000209060050201600401805461021d90611103565b80601f016020809104026020016040519081016040528092919081815260200182805461024990611103565b80156102965780601f1061026b57610100808354040283529160200191610296565b820191906000526020600020905b81548152906001019060200180831161027957829003601f168201915b50505050509050919050565b600033348484426040516020016102bd9594939291906111fa565b6040516020818303038152906040528051906020012090506000816040516020016102e89190611280565b604051602081830303815290604052905060016040518060a001604052803373ffffffffffffffffffffffffffffffffffffffff16815260200134815260200186815260200185815260200183815250908060018154018082558091505060019003906000526020600020906005020160009091909190915060008201518160000160006101000a81548173ffffffffffffffffffffffffffffffffffffffff021916908373ffffffffffffffffffffffffffffffffffffffff1602179055506020820151816001015560408201518160020190816103c79190611447565b506060820151816003015560808201518160040190816103e79190611447565b5050507f93f7391fa5fb27f63d103a4c067866cc9d08c7cd17e691d052d9d47199be631a3334868685604051610421959493929190610fac565b60405180910390a150505050565b60606000805b600180549050811015610520576104f960018281548110610459576104586110a5565b5b9060005260206000209060050201600401805461047590611103565b80601f01602080910402602001604051908101604052809291908181526020018280546104a190611103565b80156104ee5780601f106104c3576101008083540402835291602001916104ee565b820191906000526020600020905b8154815290600101906020018083116104d157829003601f168201915b505050505085610a66565b1561050d57818061050990611548565b9250505b808061051890611548565b915050610435565b5060008167ffffffffffffffff81111561053d5761053c610c67565b5b60405190808252806020026020018201604052801561056b5781602001602082028036833780820191505090505b5090506000805b60018054905081101561067d5761063660018281548110610596576105956110a5565b5b906000526020600020906005020160040180546105b290611103565b80601f01602080910402602001604051908101604052809291908181526020018280546105de90611103565b801561062b5780601f106106005761010080835404028352916020019161062b565b820191906000526020600020905b81548152906001019060200180831161060e57829003601f168201915b505050505087610a66565b1561066a578083838151811061064f5761064e6110a5565b5b602002602001018181525050818061066690611548565b9250505b808061067590611548565b915050610572565b50819350505050919050565b6001818154811061069957600080fd5b90600052602060002090600502016000915090508060000160009054906101000a900473ffffffffffffffffffffffffffffffffffffffff16908060010154908060020180546106e890611103565b80601f016020809104026020016040519081016040528092919081815260200182805461071490611103565b80156107615780601f1061073657610100808354040283529160200191610761565b820191906000526020600020905b81548152906001019060200180831161074457829003601f168201915b50505050509080600301549080600401805461077c90611103565b80601f01602080910402602001604051908101604052809291908181526020018280546107a890611103565b80156107f55780601f106107ca576101008083540402835291602001916107f5565b820191906000526020600020905b8154815290600101906020018083116107d857829003601f168201915b5050505050905085565b60606000805b6001805490508110156108f0576108c960018281548110610829576108286110a5565b5b9060005260206000209060050201600201805461084590611103565b80601f016020809104026020016040519081016040528092919081815260200182805461087190611103565b80156108be5780601f10610893576101008083540402835291602001916108be565b820191906000526020600020905b8154815290600101906020018083116108a157829003601f168201915b505050505085610a66565b156108dd5781806108d990611548565b9250505b80806108e890611548565b915050610805565b5060008167ffffffffffffffff81111561090d5761090c610c67565b5b60405190808252806020026020018201604052801561093b5781602001602082028036833780820191505090505b5090506000805b600180549050811015610a4d57610a0660018281548110610966576109656110a5565b5b9060005260206000209060050201600201805461098290611103565b80601f01602080910402602001604051908101604052809291908181526020018280546109ae90611103565b80156109fb5780601f106109d0576101008083540402835291602001916109fb565b820191906000526020600020905b8154815290600101906020018083116109de57829003601f168201915b505050505087610a66565b15610a3a5780838381518110610a1f57610a1e6110a5565b5b6020026020010181815250508180610a3690611548565b9250505b8080610a4590611548565b915050610942565b50819350505050919050565b6000600180549050905090565b60008151835114610a7a5760009050610b2e565b60005b8351811015610b2857828181518110610a9957610a986110a5565b5b602001015160f81c60f81b7effffffffffffffffffffffffffffffffffffffffffffffffffffffffffffff1916848281518110610ad957610ad86110a5565b5b602001015160f81c60f81b7effffffffffffffffffffffffffffffffffffffffffffffffffffffffffffff191614610b15576000915050610b2e565b8080610b2090611548565b915050610a7d565b50600190505b92915050565b6000604051905090565b600080fd5b600080fd5b6000819050919050565b610b5b81610b48565b8114610b6657600080fd5b50565b600081359050610b7881610b52565b92915050565b600060208284031215610b9457610b93610b3e565b5b6000610ba284828501610b69565b91505092915050565b600081519050919050565b600082825260208201905092915050565b60005b83811015610be5578082015181840152602081019050610bca565b60008484015250505050565b6000601f19601f8301169050919050565b6000610c0d82610bab565b610c178185610bb6565b9350610c27818560208601610bc7565b610c3081610bf1565b840191505092915050565b60006020820190508181036000830152610c558184610c02565b905092915050565b600080fd5b600080fd5b7f4e487b7100000000000000000000000000000000000000000000000000000000600052604160045260246000fd5b610c9f82610bf1565b810181811067ffffffffffffffff82111715610cbe57610cbd610c67565b5b80604052505050565b6000610cd1610b34565b9050610cdd8282610c96565b919050565b600067ffffffffffffffff821115610cfd57610cfc610c67565b5b610d0682610bf1565b9050602081019050919050565b82818337600083830152505050565b6000610d35610d3084610ce2565b610cc7565b905082815260208101848484011115610d5157610d50610c62565b5b610d5c848285610d13565b509392505050565b600082601f830112610d7957610d78610c5d565b5b8135610d89848260208601610d22565b91505092915050565b6000819050919050565b610da581610d92565b8114610db057600080fd5b50565b600081359050610dc281610d9c565b92915050565b60008060408385031215610ddf57610dde610b3e565b5b600083013567ffffffffffffffff811115610dfd57610dfc610b43565b5b610e0985828601610d64565b9250506020610e1a85828601610db3565b9150509250929050565b600060208284031215610e3a57610e39610b3e565b5b600082013567ffffffffffffffff811115610e5857610e57610b43565b5b610e6484828501610d64565b91505092915050565b600081519050919050565b600082825260208201905092915050565b6000819050602082019050919050565b610ea281610b48565b82525050565b6000610eb48383610e99565b60208301905092915050565b6000602082019050919050565b6000610ed882610e6d565b610ee28185610e78565b9350610eed83610e89565b8060005b83811015610f1e578151610f058882610ea8565b9750610f1083610ec0565b925050600181019050610ef1565b5085935050505092915050565b60006020820190508181036000830152610f458184610ecd565b905092915050565b600073ffffffffffffffffffffffffffffffffffffffff82169050919050565b6000610f7882610f4d565b9050919050565b610f8881610f6d565b82525050565b610f9781610b48565b82525050565b610fa681610d92565b82525050565b600060a082019050610fc16000830188610f7f565b610fce6020830187610f8e565b8181036040830152610fe08186610c02565b9050610fef6060830185610f9d565b81810360808301526110018184610c02565b90509695505050505050565b60006020820190506110226000830184610f8e565b92915050565b600082825260208201905092915050565b7f5472616e73616374696f6e20646f6573206e6f74206578697374000000000000600082015250565b600061106f601a83611028565b915061107a82611039565b602082019050919050565b6000602082019050818103600083015261109e81611062565b9050919050565b7f4e487b7100000000000000000000000000000000000000000000000000000000600052603260045260246000fd5b7f4e487b7100000000000000000000000000000000000000000000000000000000600052602260045260246000fd5b6000600282049050600182168061111b57607f821691505b60208210810361112e5761112d6110d4565b5b50919050565b60008160601b9050919050565b600061114c82611134565b9050919050565b600061115e82611141565b9050919050565b61117661117182610f6d565b611153565b82525050565b6000819050919050565b61119761119282610b48565b61117c565b82525050565b600081905092915050565b60006111b382610bab565b6111bd818561119d565b93506111cd818560208601610bc7565b80840191505092915050565b6000819050919050565b6111f46111ef82610d92565b6111d9565b82525050565b60006112068288611165565b6014820191506112168287611186565b60208201915061122682866111a8565b915061123282856111e3565b6020820191506112428284611186565b6020820191508190509695505050505050565b6000819050919050565b6000819050919050565b61127a61127582611255565b61125f565b82525050565b600061128c8284611269565b60208201915081905092915050565b60008190508160005260206000209050919050565b60006020601f8301049050919050565b600082821b905092915050565b6000600883026112fd7fffffffffffffffffffffffffffffffffffffffffffffffffffffffffffffffff826112c0565b61130786836112c0565b95508019841693508086168417925050509392505050565b6000819050919050565b600061134461133f61133a84610b48565b61131f565b610b48565b9050919050565b6000819050919050565b61135e83611329565b61137261136a8261134b565b8484546112cd565b825550505050565b600090565b61138761137a565b611392818484611355565b505050565b5b818110156113b6576113ab60008261137f565b600181019050611398565b5050565b601f8211156113fb576113cc8161129b565b6113d5846112b0565b810160208510156113e4578190505b6113f86113f0856112b0565b830182611397565b50505b505050565b600082821c905092915050565b600061141e60001984600802611400565b1980831691505092915050565b6000611437838361140d565b9150826002028217905092915050565b61145082610bab565b67ffffffffffffffff81111561146957611468610c67565b5b6114738254611103565b61147e8282856113ba565b600060209050601f8311600181146114b1576000841561149f578287015190505b6114a9858261142b565b865550611511565b601f1984166114bf8661129b565b60005b828110156114e7578489015182556001820191506020850194506020810190506114c2565b868310156115045784890151611500601f89168261140d565b8355505b6001600288020188555050505b505050505050565b7f4e487b7100000000000000000000000000000000000000000000000000000000600052601160045260246000fd5b600061155382610b48565b91507fffffffffffffffffffffffffffffffffffffffffffffffffffffffffffffffff820361158557611584611519565b5b60018201905091905056fea2646970667358221220aa5a676837a40bddb43e32b5907091b71867313d454e7a8bc9bb07276f0dde0664736f6c63430008130033",
  "immutableReferences": {},
  "source": "// SPDX-License-Identifier: MIT\npragma solidity 0.8.19;\n\ncontract RDF {\n    // Transaction structure\n    struct Transaction {\n        address sender;\n        uint amount;\n        bytes payload;\n        int lshCodes;\n        bytes TxHash; //  TxHash \n    }\n\n    // Knowledge graph structure\n    struct RDFGraph {\n        bytes32 rootHash;\n    }\n    // Knowledge graph instance\n    RDFGraph private rdfGraph;\n    \n    // Array to store transactions\n    Transaction[] public transactions;\n\n        // Event to log transaction creation\n    event TransactionCreated(address sender, uint amount, bytes payload, int lshCodes, bytes TxHash);\n    // Function to initiate a transaction\n    function sendTransaction(bytes memory _payload, int _lshCodes) public payable {\n        // \n        bytes32 txHash = keccak256(abi.encodePacked(msg.sender, msg.value, _payload, _lshCodes, block.timestamp));\n        bytes memory txhash = abi.encodePacked(txHash); //  bytes\n        // Create a new transaction and add it to the array\n        transactions.push(Transaction({\n            sender: msg.sender,\n            amount: msg.value,\n            payload: _payload,\n            lshCodes: _lshCodes,\n            TxHash: txhash // \n        }));\n        \n        // Emit an event for the new transaction\n        emit TransactionCreated(msg.sender, msg.value, _payload, _lshCodes, txhash);\n    }\n\n    // Function to get the total number of transactions\n    function getTotalTransactions() public view returns (uint) {\n        return transactions.length;\n    }\n\n    // Helper function to compare two bytes arrays\n    function compareBytes(bytes memory a, bytes memory b) internal pure returns (bool) {\n        if (a.length != b.length) {\n            return false;\n        }\n        for (uint i = 0; i < a.length; i++) {\n            if (a[i] != b[i]) {\n                return false;\n            }\n        }\n        return true;\n    }\n\n    // Function to find transactions by transaction hash\n    function findTransactionsByTxHash(bytes memory _txhash) public view returns (uint[] memory) {\n        uint count = 0;\n        for (uint i = 0; i < transactions.length; i++) {\n            // Compare TxHash with the provided hashes\n            if (compareBytes(transactions[i].TxHash, _txhash)) {\n                count++;\n            }\n        }\n\n        uint[] memory result = new uint[](count);\n        uint resultIndex = 0;\n        for (uint i = 0; i < transactions.length; i++) {\n            if (compareBytes(transactions[i].TxHash, _txhash)) {\n                result[resultIndex] = i;\n                resultIndex++;\n            }\n        }\n        return result;\n    }\n    \n    // Function to get the payload of a specific transaction\n    function findTransactionsByIndex(uint index) public view returns (bytes memory) {\n        require(index < transactions.length, \"Transaction does not exist\");\n        return transactions[index].TxHash;\n    }\n    \n    // Function to find transactions by payload\n    function findTransactionsBypayload(bytes memory path) public view returns (uint[] memory) {\n        uint count = 0;\n        for (uint i = 0; i < transactions.length; i++) {\n            if (compareBytes(transactions[i].payload, path)) {\n                count++;\n            }\n        }\n\n        uint[] memory result = new uint[](count);\n        uint resultIndex = 0;\n        for (uint i = 0; i < transactions.length; i++) {\n            if (compareBytes(transactions[i].payload, path)) {\n                result[resultIndex] = i;\n                resultIndex++;\n            }\n        }\n        return result;\n    }\n    \n    // Fallback function to receive Ether\n    receive() external payable {}\n}\n",
  "sourcePath": "/Users/sophy/Documents//privateChain/LSHChain/contracts/RDF.sol",
  "compiler": {
    "name": "solc",
    "version": "0.8.19+commit.7dd6d404.Emscripten.clang"
  },
  "schemaVersion": "3.4.16",
  "updatedAt": "2024-10-17T03:50:08.727Z",
  "networkType": "ethereum",
  "devdoc": {
    "kind": "dev",
    "methods": {},
    "version": 1
  },
  "userdoc": {
    "kind": "user",
    "methods": {},
    "version": 1
  }
}